:020000040800F2
:1000000000500020F9240008DD220008E322000847
:10001000E9220008EF220008F52200080000000095
:10002000000000000000000000000000FB220008AB
:100030000723000800000000132300082123000804
:1000400041250008412500084125000841250008F8
:1000500041250008412500084125000841250008E8
:1000600041250008412500084125000841250008D8
:1000700041250008412500084125000841250008C8
:1000800041250008412500084125000841250008B8
:1000900041250008412500084125000841250008A8
:1000A0004125000845230008412500084125000896
:1000B0004125000841250008412500084125000888
:1000C0004125000841250008412500084125000878
:1000D0004125000859230008412500084125000852
:1000E00041250008412500084125000800000000C6
:1000F0000000000000000000000000000000000000
:0C01000000000000000000005FF808F1A3
:1001100010B5054C237833B9044B13B10448AFF341
:1001200000800123237010BDE001002000000000CA
:100130005C7D000808B5034B1BB103490348AFF3CE
:10014000008008BD00000000E40100205C7D000884
:10015000034613F8012B002AFBD1181A0138704707
:1001600081F0004102E000BF83F0004330B54FEA68
:1001700041044FEA430594EA050F08BF90EA020FD5
:100180001FBF54EA000C55EA020C7FEA645C7FEA68
:10019000655C00F0E2804FEA5454D4EB5555B8BF8B
:1001A0006D420CDD2C4480EA020281EA030382EAFC
:1001B000000083EA010180EA020281EA0303362D8E
:1001C00088BF30BD11F0004F4FEA01314FF4801C61
:1001D0004CEA113102D0404261EB410113F0004F73
:1001E0004FEA03334CEA133302D0524263EB43032A
:1001F00094EA050F00F0A780A4F10104D5F1200EC8
:100200000DDB02FA0EFC22FA05F2801841F1000122
:1002100003FA0EF2801843FA05F359410EE0A5F1F6
:1002200020050EF1200E012A03FA0EFC28BF4CF027
:10023000020C43FA05F3C01851EBE37101F00045DD
:1002400007D54FF0000EDCF1000C7EEB00006EEBEA
:100250000101B1F5801F1BD3B1F5001F0CD3490874
:100260005FEA30004FEA3C0C04F101044FEA4452CB
:1002700012F5800F80F09A80BCF1004F08BF5FEA52
:10028000500C50F1000041EB045141EA050130BD32
:100290005FEA4C0C404141EB0101013C28BFB1F544
:1002A000801FE9D291F0000F04BF01460020B1FA8F
:1002B00081F308BF2033A3F10B03B3F120020CDA62
:1002C0000C3208DD02F1140CC2F10C0201FA0CF040
:1002D00021FA02F10CE002F11402D8BFC2F1200CA5
:1002E00001FA02F120FA0CFCDCBF41EA0C0190405B
:1002F000E41AA2BF01EB0451294330BD6FEA0404A4
:100300001F3C1CDA0C340EDC04F11404C4F120028E
:1003100020FA04F001FA02F340EA030021FA04F3A0
:1003200045EA030130BDC4F10C04C4F1200220FAF7
:1003300002F001FA04F340EA0300294630BD21FA35
:1003400004F0294630BD94F0000F83F4801306BFFB
:1003500081F480110134013D4EE77FEA645C18BFEF
:100360007FEA655C29D094EA050F08BF90EA020F86
:1003700005D054EA000C04BF1946104630BD91EA7E
:10038000030F1EBF0021002030BD5FEA545C05D181
:100390004000494128BF41F0004130BD14F58004C0
:1003A0003CBF01F5801130BD01F0004545F0FE4134
:1003B00041F470014FF0000030BD7FEA645C1ABF69
:1003C000194610467FEA655C1CBF0B46024650EAA0
:1003D000013406BF52EA033591EA030F41F40021CC
:1003E00030BD00BF90F0000F04BF0021704730B552
:1003F0004FF4806404F132044FF000054FF0000127
:1004000050E700BF90F0000F04BF0021704730B5E7
:100410004FF4806404F1320410F0004548BF4042BC
:100420004FF000013EE700BF42004FEAE2014FEA11
:1004300031014FEA02701FBF12F07F4393F07F4FEC
:1004400081F06051704732F07F4208BF704793F0EF
:100450007F4F04BF41F40021704730B54FF4607402
:1004600001F0004521F000411CE700BF50EA010205
:1004700008BF704730B54FF000050AE050EA0102AE
:1004800008BF704730B511F0004502D5404261EB1E
:1004900041014FF4806404F132045FEA915C3FF45F
:1004A000D8AE4FF003025FEADC0C18BF03325FEAFC
:1004B000DC0C18BF033202EBDC02C2F1200300FAAD
:1004C00003FC20FA02F001FA03FE40EA0E0021FAD2
:1004D00002F11444BDE600BF70B54FF0FF0C4CF4C0
:1004E000E06C1CEA11541DBF1CEA135594EA0C0F72
:1004F00095EA0C0F00F0DEF82C4481EA030621EAAD
:100500004C5123EA4C5350EA013518BF52EA0335E7
:1005100041F4801143F4801338D0A0FB02CE4FF099
:100520000005E1FB02E506F00042E0FB03E54FF0C9
:100530000006E1FB03569CF0000F18BF4EF0010EC1
:10054000A4F1FF04B6F5007F64F5407404D25FEABD
:100550004E0E6D4146EB060642EAC62141EA555170
:100560004FEAC52040EA5E504FEACE2EB4F1FD0CB2
:1005700088BFBCF5E06F1ED8BEF1004F08BF5FEA30
:10058000500E50F1000041EB045170BD06F00046E2
:1005900046EA010140EA020081EA0301B4EB5C048F
:1005A000C2BFD4EB0C0541EA045170BD41F4801187
:1005B0004FF0000E013C00F3AB8014F1360FDEBFAC
:1005C000002001F0004170BDC4F10004203C35DA88
:1005D0000C341BDC04F11404C4F1200500FA05F30B
:1005E00020FA04F001FA05F240EA020001F00042AC
:1005F00021F0004110EBD37021FA04F642EB060122
:100600005EEA430E08BF20EAD37070BDC4F10C044B
:10061000C4F1200500FA04F320FA05F001FA04F20F
:1006200040EA020001F0004110EBD37041F10001FB
:100630005EEA430E08BF20EAD37070BDC4F1200506
:1006400000FA05F24EEA020E20FA04F301FA05F26E
:1006500043EA020321FA04F001F0004121FA04F216
:1006600020EA020000EBD3705EEA430E08BF20EAE6
:10067000D37070BD94F0000F0FD101F00046400020
:1006800041EB010111F4801F08BF013CF7D041EAA2
:10069000060195F0000F18BF704703F000465200A6
:1006A00043EB030313F4801F08BF013DF7D043EA77
:1006B0000603704794EA0C0F0CEA135518BF95EA2D
:1006C0000C0F0CD050EA410618BF52EA4306D1D1B4
:1006D00081EA030101F000414FF0000070BD50EAD3
:1006E000410606BF1046194652EA430619D094EA5D
:1006F0000C0F02D150EA013613D195EA0C0F05D147
:1007000052EA03361CBF104619460AD181EA03019A
:1007100001F0004141F0FE4141F470014FF0000052
:1007200070BD41F0FE4141F4780170BD70B54FF0ED
:10073000FF0C4CF4E06C1CEA11541DBF1CEA13556D
:1007400094EA0C0F95EA0C0F00F0A7F8A4EB05044F
:1007500081EA030E52EA03354FEA013100F0888046
:100760004FEA03334FF0805545EA131343EA12630F
:100770004FEA022245EA111545EA10654FEA0026C4
:100780000EF000419D4208BF964244F1FD0404F57D
:10079000407402D25B084FEA3202B61A65EB0305D9
:1007A0005B084FEA32024FF480104FF4002CB6EB96
:1007B000020E75EB030E22BFB61A754640EA0C0016
:1007C0005B084FEA3202B6EB020E75EB030E22BF56
:1007D000B61A754640EA5C005B084FEA3202B6EB97
:1007E000020E75EB030E22BFB61A754640EA9C0056
:1007F0005B084FEA3202B6EB020E75EB030E22BF26
:10080000B61A754640EADC0055EA060E18D04FEAE3
:10081000051545EA16754FEA06164FEAC30343EA83
:1008200052734FEAC2025FEA1C1CC0D111F4801F50
:100830000BD141EA00014FF000004FF0004CB6E749
:1008400011F4801F04BF01430020B4F1FD0C88BFE8
:10085000BCF5E06F3FF6AFAEB5EB030C04BFB6EBF3
:10086000020C5FEA500C50F1000041EB045170BDE6
:100870000EF0004E4EEA113114EB5C04C2BFD4EB13
:100880000C0541EA045170BD41F480114FF0000E97
:10089000013C90E645EA060E8DE60CEA135594EA13
:1008A0000C0F08BF95EA0C0F3FF43BAF94EA0C0F16
:1008B0000AD150EA01347FF434AF95EA0C0F7FF48B
:1008C00025AF104619462CE795EA0C0F06D152EADF
:1008D00003353FF4FDAE1046194622E750EA4106C3
:1008E00018BF52EA43067FF4C5AE50EA41047FF4D4
:1008F0000DAF52EA43057FF4EBAE12E74FF0FF3C39
:1009000006E000BF4FF0010C02E000BF4FF0010C09
:100910004DF804CD4FEA410C7FEA6C5C4FEA430C82
:1009200018BF7FEA6C5C1BD001B050EA410C0CBFD1
:1009300052EA430C91EA030F02BF90EA020F002033
:10094000704710F1000F91EA030F58BF994208BF9A
:1009500090422CBFD8176FEAE37040F00100704757
:100960004FEA410C7FEA6C5C02D150EA013C07D1AE
:100970004FEA430C7FEA6C5CD6D152EA033CD3D0F9
:100980005DF8040B704700BF8446104662468C46F3
:100990001946634600E000BF01B5FFF7B7FF002826
:1009A00048BF10F1000F01BD4DF808EDFFF7F4FF4F
:1009B0000CBF012000205DF808FB00BF4DF808EDDA
:1009C000FFF7EAFF34BF012000205DF808FB00BFFD
:1009D0004DF808EDFFF7E0FF94BF012000205DF81F
:1009E00008FB00BF4DF808EDFFF7CEFF94BF0120D4
:1009F00000205DF808FB00BF4DF808EDFFF7C4FFCD
:100A000034BF012000205DF808FB00BF4FEA410C15
:100A10007FEA6C5C02D150EA013C0AD14FEA430CF8
:100A20007FEA6C5C02D152EA033C02D14FF0000035
:100A300070474FF0010070474FEA410212F5001273
:100A400015D211D56FF47873B3EB625212D94FEA15
:100A5000C12343F0004343EA505311F0004F23FAFF
:100A600002F018BF404270474FF00000704750EA54
:100A7000013005D111F0004008BF6FF00040704711
:100A80004FF00000704700BF4FEA4102B2F1E0436F
:100A900024BFB3F5001CDCF1FE5C0DD901F0004C65
:100AA0004FEAC0024CEA5070B2F1004F40EB8300B5
:100AB00008BF20F00100704711F0804F21D113F1E1
:100AC0003872BCBF01F00040704741F480114FEA1A
:100AD0005252C2F11802C2F1200C10FA0CF320FAA3
:100AE00002F018BF40F001004FEAC1234FEAD323C0
:100AF00003FA0CFC40EA0C0023FA02F34FEA43032A
:100B0000CCE77FEA625307D150EA01331EBF4FF0B2
:100B1000FE4040F44000704701F0004040F0FE40CD
:100B200040F40000704700BF2DE9B0438CB000AF27
:100B3000786039605B4B00221A600023FB6204E09E
:100B4000584B1B680133574A1360564B1B681A46B3
:100B50007B6813441B782C2BF2D1524B1B6801335A
:100B6000504A136004E04F4B1B6801334D4A136039
:100B70004C4B1B681A467B6813441B782C2BF2D114
:100B8000484B1B680133474A136004E0454B1B6820
:100B90000133444A1360434B1B681A467B68134475
:100BA0001B782C2BF2D13F4B1B6801333D4A13605D
:100BB00004E03C4B1B6801333A4A1360394B1B6815
:100BC0001A467B6813441B782C2BF2D1354B1B68DB
:100BD0000133344A136004E0324B1B680133314A5D
:100BE0001360304B1B681A467B6813441B782C2B10
:100BF000F2D12C4B1B6801332A4A136004E0294BC5
:100C00001B680133274A1360264B1B681A467B6812
:100C100013441B782C2BF2D1224B1B680133214A41
:100C20001360204B1B681A467B6813441B78312BDA
:100C30000FD01C4B1B681A467B6813441B78322B61
:100C400007D0184B1B681A467B6813441B78362B59
:100C500006D13B680122DA61124B00221A6009E0DA
:100C60003B680022DA610123D3E20E4B1B6801339B
:100C70000C4A13600B4B1B681A467B6813441B78A5
:100C80002C2BF2D1074B1B680133064A136007F186
:100C90000C030C220021184603F066F90023FB62C6
:100CA00016E000BFFC010020AF4B1B681A467B68B2
:100CB0001344197807F10C02FB6A13440A461A70B0
:100CC000FB6A0133FB62A84B1B680133A64A136021
:100CD000A54B1B681A467B6813441B782C2BE3D169
:100CE00007F10C03184603F011F903469F4A82FBF3
:100CF00003121213DB17D31A9D4A136007F10C037A
:100D0000184603F003F903469A4A82FB0312521174
:100D1000DB17D21A974B83FB02135911D317CB1A47
:100D2000642101FB03F3D31A934A1360924B1B68AF
:100D30003B2B09DD904B1B683C3B8F4A13608C4B6F
:100D40001B6801338A4A1360894B1B68002B09DA40
:100D5000874B1B681833864A1360884B1B68013B1E
:100D6000864A1360824B1B68172B09DD804B1B687A
:100D7000183B7F4A1360814B1B6801337F4A136025
:100D80007B4B1A683B681A617B4B1A683B685A6157
:100D900007F10C03184603F0B9F80246754B83FBC4
:100DA00002135911D317CB1A642101FB03F3D31A91
:100DB0003A6893616C4B1B6801336B4A136007F10F
:100DC0000C030C220021184603F0CEF80023FB622E
:100DD00013E0654B1B681A467B681344197807F1CA
:100DE0000C02FB6A13440A461A70FB6A0133FB6269
:100DF0005D4B1B6801335C4A13605B4B1B681A46F2
:100E00007B6813441B782C2BE3D107F10C031846A5
:100E1000FFF79EF90346052B01D80223F9E107F1FC
:100E20000C03184603F072F80346FB840023BB62F0
:100E300002E0BB6A0133BB6207F10C02BB6A1344D8
:100E40001B782E2BF5D1BB6A0133BB6207F10C0373
:100E50001846FFF77DF90246BB6AD31A3B62BB6AAC
:100E600007F10C021344184603F050F8F861B7F983
:100E700026301846FFF7C6FA4FF00002404BFFF746
:100E800055FC02460B4690469946F869FFF7BAFAB8
:100E900004460D463B6A02331846FFF7B3FA024692
:100EA0000B464FF00000374905F0C8FF02460B46DD
:100EB00020462946FFF73AFC02460B464046494683
:100EC000FFF754F902460B4610461946FFF7DCFDC2
:100ED0000346BB613B68BA691A60234B1B68013348
:100EE000214A1360204B1B681A467B6813441A780A
:100EF0003B681A711C4B1B6801331B4A13601A4B69
:100F00001B680133184A136007F10C030C220021FF
:100F1000184603F029F80023FB6213E0124B1B680C
:100F20001A467B681344197807F10C02FB6A1344D4
:100F30000A461A70FB6A0133FB620B4B1B680133D4
:100F4000094A1360084B1B681A467B6813441B78D8
:100F50002C2BE3D107F10C03184602F0D7FF034610
:100F6000FB840023BB6212E0FC010020AD8BDB6838
:100F7000000200201F85EB51040200201402002013
:100F80000000594000002440BB6A0133BB6207F1F6
:100F90000C02BB6A13441B782E2BF5D0BB6A0133BD
:100FA000BB6207F10C031846FFF7D2F80246BB6A92
:100FB000D31A3B62BB6A07F10C021344184602F0D5
:100FC000A5FFF861B7F926301846FFF71BFA4FF076
:100FD0000002924BFFF7AAFB02460B469046994649
:100FE000F869FFF70FFA04460D463B6A02331846CC
:100FF000FFF708FA02460B464FF00000884905F05B
:101000001DFF02460B4620462946FFF78FFB02468E
:101010000B4640464946FFF7A9F802460B461046E4
:101020001946FFF731FD0346BB613B68BA699A6018
:101030007C4B1B6801337B4A13607A4B1B681A4652
:101040007B6813441A783B681A73764B1B6801332C
:10105000744A1360734B1B680133724A1360714BFF
:101060001B6801336F4A13606E4B1B6801336D4A76
:10107000136007F10C030C220021184602F074FFE4
:101080000023FB6213E0674B1B681A467B6813441E
:10109000197807F10C02FB6A13440A461A70FB6ABE
:1010A0000133FB625F4B1B6801335E4A13605D4B8B
:1010B0001B681A467B6813441B782C2BE3D107F17D
:1010C0000C03184602F022FF02463B689A62554B19
:1010D0001B680133534A136004E0524B1B68013311
:1010E000504A13604F4B1B681A467B6813441B78A9
:1010F0002C2BF2D14B4B1B6801334A4A136007F18A
:101100000C030C220021184602F02EFF0023FB6284
:1011100013E0444B1B681A467B681344197807F1A7
:101120000C02FB6A13440A461A70FB6A0133FB6225
:101130003C4B1B6801333B4A13603A4B1B681A4611
:101140007B6813441B782C2BE3D107F10C03184662
:1011500002F0DCFE0346FB840023BB6202E0BB6AB4
:101160000133BB6207F10C02BB6A13441B782E2BC0
:10117000F5D1BB6A0133BB6207F10C031846FEF7D9
:10118000E7FF0246BB6AD31A3B62BB6A07F10C0257
:101190001344184602F0BAFEF861B7F92630184633
:1011A000FFF730F904460D46F869FFF72BF9804642
:1011B0008946386AFFF726F902460B464FF00000D1
:1011C000174905F03BFE02460B4640464946FFF7ED
:1011D000ADFA02460B4620462946FEF7C7FF0246F7
:1011E0000B4610461946FFF74FFC0346BB613B68B0
:1011F000BA691A620B4B1B6801330A4A1360094B28
:101200001B681A467B6813441A783B6883F82420CD
:10121000002318463037BD46BDE8B0830000594072
:1012200000002440FC0100202DE9B04390B000AF45
:1012300078603960924B00221A600023FB6304E05F
:101240008F4B1B6801338E4A13608D4B1B681A4607
:101250007B6813441B782C2BF2D1894B1B6801331C
:10126000874A136004E0864B1B680133844A13608D
:10127000834B1B681A467B6813441B782C2BF2D1D6
:101280007F4B1B6801337E4A13607D4B1B681A46F7
:101290007B6813441B78412B0DD13B6801225A61B6
:1012A000774B1B680133764A1360754B1B6801331B
:1012B000734A136009E03B6800225A610123D5E1BB
:1012C0006F4B1B6801336E4A13606D4B1B681A46E7
:1012D0007B6813441B782C2BF2D1694B1B680133BC
:1012E000674A136004E0664B1B680133644A13606D
:1012F000634B1B681A467B6813441B782C2BF2D176
:101300005F4B1B6801335E4A136004E05C4B1B6853
:1013100001335B4A13605A4B1B681A467B681344BF
:101320001B782C2BF2D1564B1B680133544A1360A7
:1013300004E0534B1B680133514A1360504B1B6848
:101340001A467B6813441B782C2BF2D14C4B1B683C
:1013500001334B4A13600023FB6307F108030C229F
:101360000021184602F000FE13E0454B1B681A46A8
:101370007B681344197807F10802FB6B13440A4693
:101380001A70FB6B0133FB633D4B1B6801333C4A16
:1013900013603B4B1B681A467B6813441B782C2B4D
:1013A000E3D107F108031B78002B55D007F10803A0
:1013B000184602F0ABFD03467B860023BB6302E0C8
:1013C000BB6B0133BB6307F10802BB6B13441B7893
:1013D0002E2BF5D1BB6B0133BB6307F10803184615
:1013E000FEF7B6FE0246BB6BD31AFB62BB6B07F17E
:1013F00008021344184602F089FDB862B7F932308A
:101400001846FEF7FFFF04460D46B86AFEF7FAFFDE
:1014100080468946F86AFEF7F5FF02460B464FF014
:101420000000184905F00AFD02460B4640464946B1
:10143000FFF77CF902460B4620462946FEF796FE4A
:1014400002460B4610461946FFF71EFB03467B6219
:101450003B687A6ADA6003E03B684FF00002DA60CA
:10146000074B1B680133064A13600023FB6307F137
:1014700008030C220021184602F076FD18E000BF98
:10148000FC010020000024407B4B1B681A467B684F
:101490001344197807F10802FB6B13440A461A70CB
:1014A000FB6B0133FB63744B1B680133724A13609F
:1014B000714B1B681A467B6813441B782C2BE3D1B5
:1014C00007F108031B78002B55D007F108031846D5
:1014D00002F01CFD03467B8400237B6302E07B6BF0
:1014E00001337B6307F108027B6B13441B782E2BBF
:1014F000F5D17B6B01337B6307F108031846FEF7D8
:1015000027FE02467B6BD31AFB617B6B07F1080257
:101510001344184602F0FAFCB861B7F922301846B5
:10152000FEF770FF04460D46B869FEF76BFF804674
:101530008946F869FEF766FF02460B464FF0000049
:101540004E4905F07BFC02460B4640464946FFF7F4
:10155000EDF802460B4620462946FEF707FE0246F6
:101560000B4610461946FFF78FFA03467B613B682E
:101570007A691A6103E03B684FF000021A613E4B42
:101580001B6801333C4A13600023FB6307F1080327
:101590000C220021184602F0E7FC13E0364B1B68D2
:1015A0001A467B681344197807F10802FB6B134451
:1015B0000A461A70FB6B0133FB632F4B1B68013328
:1015C0002D4A13602C4B1B681A467B6813441B780A
:1015D0002C2BE3D107F10803184602F097FC0346D1
:1015E000274A82FB03121213DB17D31A254A136012
:1015F00007F10803184602F089FC0346224A82FBE1
:1016000003125211DB17D21A1F4B83FB021359111D
:10161000D317CB1A642101FB03F3D31A1B4A1360BF
:1016200007F10803184602F071FC0246164B83FBD3
:1016300002135911D317CB1A642101FB03F3D31AF8
:10164000134A13600F4B1A68124B1B6813440D4A60
:1016500013600C4B1A683B681A600C4B1A683B68A5
:101660005A600B4B1A683B689A6000231846403753
:10167000BD46BDE8B08300BFFC010020000024404F
:10168000AD8BDB68080200201F85EB510C020020A7
:10169000100200201402002080B400AF0C4B0D4A51
:1016A0001A600D4B0D4A1A600D4B1B685A690C4BA2
:1016B0001B6842F001025A61094B1B68DA68084B4B
:1016C0001B6842F02002DA6000BFBD4680BC704754
:1016D000B806002018020020B406002020040020D4
:1016E000BC06002080B485B000AF03463960FB71B2
:1016F0003B68D3F800320133C3F30803FB603B6857
:10170000D3F80422FB689A4209D03B68D3F8003230
:101710003A68F979D154FA683B68C3F8002200BFEF
:101720001437BD4680BC704780B483B000AF134B04
:101730001B68D3F80022114B1B68D3F804329A427D
:1017400002D14FF0FF3313E00C4B1A680B4B1B68B0
:10175000D3F80432D35CFB71084B1B68D3F8043216
:101760005A1C064B1B68C2F30802C3F80422FB791B
:1017700018460C37BD4680BC704700BFB806002035
:1017800080B400AF0A4B1B68D3F800329AB2084B02
:101790001B68D3F804329BB2D31A9BB203F50073D3
:1017A0009BB2C3F308031846BD4680BC704700BF18
:1017B000B806002080B500AF094B1B684FF40072DB
:1017C0000021184602F0D0FB054B1B680022C3F82D
:1017D0000022034B1B680022C3F8042200BF80BD17
:1017E000B806002080B400AF0B4B1B68D3F8002272
:1017F000094B1B68D3F804329A4202D14FF0FF33F1
:1018000006E0054B1A68044B1B68D3F80432D35C1E
:101810001846BD4680BC7047B806002080B586B02B
:1018200000AF7860396000237B617868FEF790FC38
:101830000346FB6000233B611EE0364B1968354BC5
:101840001B68D3F804223B69386803448A5C1A7029
:10185000304B1B68D3F804325A1C2E4B1B68C2F362
:101860000802C3F804223B6901333B6100BFFFF764
:1018700087FF0346002BFAD0FFF7B4FF01467B69D0
:101880007A6813441B789942D7D127E07B690133EA
:101890007B61FFF749FF01463B695A1C3A611A46D2
:1018A0003B681344CAB21A707A69FB689A4201D144
:1018B00001232AE0184B4FF4FA721A8000BFFFF799
:1018C0005FFF0346002B03D1134B1B88002BF6D17F
:1018D000114B1B88002B01D1002316E0FFF782FF7C
:1018E00001467B697A6813441B789942CED07A69A5
:1018F000FB689A4202D000237B619DE77A69FB680E
:101900009A4201D1012300E0002318461837BD4652
:1019100080BD00BFB80600200007002080B584B05D
:1019200000AF78600023FB607868FEF711FC034687
:10193000BB603C4B4FF4FA721A8000BFFFF720FFE8
:101940000346002B03D1374B1B88002BF6D1354BB8
:101950001B88002B19D1002360E0334B1B68D3F8A0
:101960000422314B1B68D3F800329A420BD02E4B25
:101970001B68D3F804325A1C2B4B1B68C2F30802B5
:10198000C3F8042201E0002348E0FFF72BFF0146E3
:10199000FB687A6813441B789942DED127E0FB6824
:1019A0000133FB60204B1B68D3F804325A1C1E4BDA
:1019B0001B68C2F30802C3F80422FA68BB689A42A3
:1019C00001D101232AE0174B4FF4FA721A8000BFAD
:1019D000FFF7D6FE0346002B03D1124B1B88002BCA
:1019E000F6D1104B1B88002B01D1002316E0FFF726
:1019F000F9FE0146FB687A6813441B789942CED001
:101A0000FA68BB689A4202D00023FB6091E7FA684B
:101A1000BB689A4201D1012300E000231846103729
:101A2000BD4680BD00070020B806002080B586B006
:101A300000AF78607B681B681B687B617B681B68F4
:101A4000DB683B617B6903F02003002B13D03B690B
:101A500003F02003002B0ED07B681B681B687B689B
:101A60001B685B68FB731E4B1A68FB7B11461846AC
:101A7000FFF738FE31E07B6903F08003002B2CD0A8
:101A80003B6903F08003002B27D0164BD3F80022CC
:101A9000144BD3F804329A4208D17B681B68DA6889
:101AA0007B681B6822F08002DA6015E00D4BD3F8EA
:101AB00004320C4AD35CBB730A4BD3F804320133B3
:101AC000C3F30803074AC2F804327B681B681B682B
:101AD0007B681B68BA7B5A6000BF1837BD4680BD63
:101AE000B80600202004002080B483B000AF7860E6
:101AF0007B68284A934247D1274B1B680133264A0B
:101B00001360254B1B68B3F57A7F0CD3224B002260
:101B10001A60224B1B680133204A1360204B1B685C
:101B200001331F4A13601E4B1B680A2B05D11D4B46
:101B300001221A601A4B00221A60184B1B683B2BBB
:101B400008D9164B00221A60174B1B780133DAB202
:101B5000154B1A70144B1B783B2B08D9124B0022E3
:101B60001A70124B1B780133DAB2104B1A700F4BFC
:101B70001B78172B08D90D4B00221A700A4B002234
:101B80001A70064B00221A6000BF0C37BD4680BC9D
:101B9000704700BF340800203406002038060020BB
:101BA00040060020300600203C0600203D060020B4
:101BB0000FB480B582B000AF07F114033B603B68FF
:101BC0003A6964210A4802F013FF094800F014F84A
:101BD00078607B689AB24FF47A730549054802F041
:101BE0002AF800BF0837BD46BDE8804004B0704702
:101BF000440600207C08002080B485B000AF7860E7
:101C00000023FB6002E0FB680133FB607B685A1C29
:101C10007A601B78002BF6D1FB6818461437BD4656
:101C200080BC70472DE9F04399B00EAF8F48FFF7A5
:101C300075FE0346012B33D18D498E48FFF7EEFD2B
:101C400000237B6202E07B6A01337B62884A7B6A05
:101C500013441B782C2BF6D17B6A01337B6202E0A4
:101C60007B6A01337B62824A7B6A13441B782C2B8C
:101C7000F6D17B6A01337B627D4A7B6A13441B7811
:101C8000412B0DD17C497A48FFF7CEFA0346002B51
:101C900003D17A4B02221A6002E0784B01221A60CB
:101CA0007748FFF73BFE0346012B67D17549714822
:101CB000FFF7B4FD00233B6202E03B6A01333B6265
:101CC000704A3B6A13441B782C2BF6D13B6A0133D4
:101CD0003B6202E03B6A01333B626A4A3B6A13445F
:101CE0001B782C2BF6D13B6A01333B6202E03B6A46
:101CF00001333B62634A3B6A13441B782C2BF6D1B9
:101D00003B6A01333B6202E03B6A01333B625D4A5E
:101D10003B6A13441B782C2BF6D13B6A01333B62A0
:101D200002E03B6A01333B62564A3B6A13441B782C
:101D30002C2BF6D13B6A01333B6202E03B6A013354
:101D40003B62504A3B6A13441B782C2BF6D13B6A0A
:101D500001333B624B4A3B6A13441B78312B0DD154
:101D600049494848FEF7E0FE0346002B03D1474BA4
:101D700002221A6002E0454B01221A60434B1B68A5
:101D8000022B0CBF01230023DAB23C4B1B68022B51
:101D90000CBF01230023DBB21343DBB2002B48D07E
:101DA000394B1B69FB61384B5969B961364B9E69E8
:101DB000354BD86A7861344B1C6B3C61324B5D6BA0
:101DC000FD60314B1B681846FEF72EFB04460D469E
:101DD0002D4B1B79BB602C4B9B681846FEF724FBF0
:101DE00080468946284B1B7B7B60274B9B6B1846A4
:101DF000FEF71AFB02460B46CDE90C237A680A92DD
:101E0000CDE90889BA680692CDE90445FD680395D5
:101E10003C690294786901900096BB69FA691C4993
:101E20001C4802F009FD1B48FFF7C2FE1A48FFF7E5
:101E3000BFFE164B00221A60104B00221A6064226B
:101E400000210B4802F090F8642200210D4802F0B6
:101E50008BF81F2200210F4802F086F8FFF7AAFC3A
:101E600000BF2C37BD46BDE8F08300BF787D000879
:101E7000040700207C7D0008180800202C060020A4
:101E8000807D000888070020EC070020280600203D
:101E9000847D000868070020B47D000880B500AF8D
:101EA00000F050FB00F024F800F00CF900F0B6F858
:101EB00000F064F800F0DCF80B4801F0C5FAFFF719
:101EC000EBFB4FF4FA7000F09FFB084B1B68002BF4
:101ED000FBD0FFF7A7FE4FF4FA6000F095FB034B31
:101EE00000221A60F1E700BF34080020300600200D
:101EF00080B590B000AF07F11803282200211846E2
:101F000002F032F83B1D00221A605A609A60DA60D3
:101F10001A610123BB614FF48033FB6100233B62F4
:101F20000123BB6202237B634FF48033BB634FF416
:101F3000E013FB6307F11803184600F01BFE03468D
:101F4000002B01D000F0E0F80F237B600223BB6080
:101F50000023FB604FF480633B6100237B613B1DEA
:101F60000221184601F086F80346002B01D000F04C
:101F7000CBF800BF4037BD4680BD000080B586B0BD
:101F800000AF07F1080300221A605A609A60DA6015
:101F90003B4600221A605A601E4B1F4A1A601D4BB6
:101FA00047225A601B4B00229A601A4B40F2E732DC
:101FB000DA60184B00221A61164B00225A61154B49
:101FC00000229A61134801F0EFF90346002B01D07B
:101FD00000F09AF84FF48053BB6007F108031946EC
:101FE0000C4801F08BFB0346002B01D000F08CF86D
:101FF00000233B6000237B603B461946054801F007
:102000005DFD0346002B01D000F07EF800BF1837BD
:10201000BD4680BD34080020002C014080B500AFD3
:10202000114B124A1A60104B4FF416525A600E4B65
:1020300000229A600C4B0022DA600B4B00221A61DE
:10204000094B0C225A61084B00229A61064B002270
:10205000DA61054801F0A2FD0346002B01D000F033
:1020600053F800BF80BD00BFBC060020003801400F
:1020700080B500AF114B124A1A60104B4FF4E13299
:102080005A600E4B00229A600C4B0022DA600B4B18
:1020900000221A61094B0C225A61084B00229A61F6
:1020A000064B0022DA61054801F078FD0346002B5B
:1020B00001D000F029F800BF80BD00BF7C080020DF
:1020C0000044004080B483B000AF0E4B9B690D4AC2
:1020D00043F0200393610B4B9B6903F020037B606B
:1020E0007B68084B9B69074A43F004039361054BE7
:1020F0009B6903F004033B603B6800BF0C37BD469F
:1021000080BC70470010024080B400AF72B600BFC0
:10211000FEE7000080B485B000AF154B9B69144A00
:1021200043F001039361124B9B6903F00103BB6011
:10213000BB680F4BDB690E4A43F08053D3610C4BF5
:10214000DB6903F080537B607B680A4B5B68FB6054
:10215000FB6823F0E063FB60FB6843F00073FB6007
:10216000044AFB68536000BF1437BD4680BC70470B
:10217000001002400000014080B584B000AF7860DC
:102180007B681B680D4A934213D10D4B9B690C4A27
:1021900043F4006393610A4B9B6903F40063FB60A3
:1021A000FB6800220021192000F029FB192000F013
:1021B00042FB00BF1037BD4680BD00BF002C014070
:1021C0000010024080B58AB000AF786007F11803B4
:1021D00000221A605A609A60DA607B681B683B4A8A
:1021E00093423AD13A4B9B69394A43F48043936115
:1021F000374B9B6903F480437B617B69344B9B695C
:10220000334A43F004039361314B9B6903F00403A9
:102210003B613B694FF40073BB610223FB61032305
:102220007B6207F1180319462A4800F01FFB4FF4A0
:102230008063BB610023FB6100233B6207F118034D
:102240001946244800F012FB00220021252000F04E
:10225000D6FA252000F0EFFA34E07B681B681E4AAE
:1022600093422FD11A4BDB69194A43F40033D361EF
:10227000174BDB6903F40033FB60FB68144B9B696D
:10228000134A43F004039361114B9B6903F0040369
:10229000BB60BB680423BB610223FB6103237B6239
:1022A00007F1180319460B4800F0E0FA0823BB6158
:1022B0000023FB6100233B6207F118031946054820
:1022C00000F0D4FA00BF2837BD4680BD0038014079
:1022D00000100240000801400044004080B400AFFC
:1022E000FEE780B400AFFEE780B400AFFEE780B445
:1022F00000AFFEE780B400AFFEE780B400AF00BFE0
:10230000BD4680BC704780B400AF00BFBD4680BCF6
:10231000704780B400AF00BFBD4680BC704700006E
:1023200080B500AF064B1B88002B05D0044B1B88E3
:10233000013B9AB2024B1A8000F04AF900BF80BDFF
:102340000007002080B500AF024801F0CFF800BFC1
:1023500080BD00BF3408002080B500AF0248FFF701
:1023600065FB00BF80BD00BFBC06002080B400AF8D
:1023700001231846BD4680BC704780B582B000AFCF
:102380007860396001F0C6FD034616221A604FF0EE
:10239000FF3318460837BD4680BD80B582B000AF18
:1023A00078604FF0FF317868FFF7E7FFFEE780B510
:1023B00086B000AFF860B9607A6000237B610AE004
:1023C000AFF300800146BB685A1CBA60CAB21A70EB
:1023D0007B6901337B617A697B689A42F0DB7B68B9
:1023E00018461837BD4680BD80B586B000AFF8608E
:1023F000B9607A6000237B6109E0BB685A1CBA604F
:102400001B781846AFF300807B6901337B617A69E2
:102410007B689A42F1DB7B6818461837BD4680BD61
:1024200080B483B000AF78604FF0FF3318460C37AC
:10243000BD4680BC704780B483B000AF786039601F
:102440003B684FF400525A60002318460C37BD46D3
:1024500080BC704780B483B000AF78600123184619
:102460000C37BD4680BC704780B485B000AFF860C3
:10247000B9607A60002318461437BD4680BC7047A7
:1024800080B586B000AF7860144A154BD31A7B61D3
:102490007B693B61134B1B68002B02D1114B124A25
:1024A0001A60104B1A687B6813443A699A4207D243
:1024B00001F030FD03460C221A604FF0FF3309E0B3
:1024C000084B1B68FB60074B1A687B681344054A7E
:1024D0001360FB6818461837BD4680BD00500020C9
:1024E00000040000A8060020D808002080B400AF37
:1024F00000BFBD4680BC7047FFF7F8FF0B480C4992
:102500000C4A002302E0D458C4500433C4188C424F
:10251000F9D3094A094C002301E013600432A242B6
:10252000FBD301F0FDFCFFF7B9FC70470000002071
:10253000E001002010820008E0010020D408002003
:10254000FEE7000080B500AF084B1B68074A43F068
:1025500010031360032000F047F90F2000F008F883
:10256000FFF7D8FD0023184680BD00BF00200240C1
:1025700080B582B000AF7860124B1A68124B1B789E
:1025800019464FF47A73B3FBF1F3B2FBF3F3184639
:1025900000F05FF90346002B01D001230EE07B68B9
:1025A0000F2B0AD8002279684FF0FF3000F027F98E
:1025B000064A7B681360002300E0012318460837B1
:1025C000BD4680BD0000002008000020040000205F
:1025D00080B400AF054B1B781A46054B1B681344AB
:1025E000034A136000BFBD4680BC7047080000204E
:1025F000C008002080B400AF024B1B681846BD46DF
:1026000080BC7047C008002080B584B000AF7860FF
:10261000FFF7F0FFB8607B68FB60FB68B3F1FF3F3A
:1026200005D00A4B1B781A46FB681344FB6000BFB9
:10263000FFF7E0FF0246BB68D31AFA689A42F7D860
:1026400000BF00BF1037BD4680BD00BF080000209E
:1026500080B485B000AF78607B6803F00703FB604F
:102660000C4BDB68BB60BA684FF6FF031340BB60DE
:10267000FB681A02BB68134343F0BF6343F40033A3
:10268000BB60044ABB68D36000BF1437BD4680BC42
:10269000704700BF00ED00E080B400AF044BDB6882
:1026A0001B0A03F007031846BD4680BC704700BFF5
:1026B00000ED00E080B483B000AF0346FB7197F9F2
:1026C0000730002B0BDBFB7903F01F02064997F95B
:1026D00007305B09012000FA02F241F8232000BF15
:1026E0000C37BD4680BC704700E100E080B483B089
:1026F00000AF03463960FB7197F90730002B0ADB06
:102700003B68DAB20C4997F907301201D2B20B4498
:1027100083F800230AE03B68DAB20849FB7903F04A
:102720000F03043B1201D2B20B441A7600BF0C37E0
:10273000BD4680BC704700BF00E100E000ED00E056
:1027400080B489B000AFF860B9607A60FB6803F0CC
:102750000703FB61FB69C3F10703042B28BF0423B4
:10276000BB61FB690433062B02D9FB69033B00E024
:1027700000237B614FF0FF32BB6902FA03F3DA43B7
:10278000BB681A407B699A404FF0FF317B6901FAC0
:1027900003F3D9437B680B40134318462437BD46E7
:1027A00080BC704780B582B000AF78607B68013B29
:1027B000B3F1807F01D301230FE00A4A7B68013B1C
:1027C00053600F214FF0FF30FFF790FF054B0022C1
:1027D0009A60044B07221A60002318460837BD464A
:1027E00080BD00BF10E000E080B582B000AF78602F
:1027F0007868FFF72DFF00BF0837BD4680BD80B564
:1028000086B000AF0346B9607A60FB7300237B613A
:10281000FFF742FF78617A68B9687869FFF790FF3F
:10282000024697F90F3011461846FFF75FFF00BFC9
:102830001837BD4680BD80B582B000AF0346FB713E
:1028400097F907301846FFF735FF00BF0837BD4638
:1028500080BD80B582B000AF78607868FFF7A2FFD6
:10286000034618460837BD4680BD000080B48BB0D3
:1028700000AF7860396000237B6200233B6269E12E
:1028800001227B6A02FA03F3FB613B681B68FA6969
:102890001340BB61BA69FB699A4240F058813B68BA
:1028A0005B689A4A93425ED0984A934275D8984A98
:1028B000934258D0964A93426FD8964A934252D048
:1028C000944A934269D8944A93424CD0924A934294
:1028D00063D8924A934246D0904A93425DD8122BD5
:1028E0002AD8122B59D801A252F823F067290008E0
:1028F0004129000853290008952900089B29000850
:102900009B2900089B2900089B2900089B29000897
:102910009B2900089B2900089B2900089B29000887
:102920009B2900089B2900089B2900089B29000877
:10293000492900085D290008794A934213D02CE008
:102940003B68DB683B6229E03B68DB6804333B6241
:1029500024E03B68DB6808333B621FE03B68DB68D0
:102960000C333B621AE03B689B68002B02D10423C6
:102970003B6213E03B689B68012B05D108233B6257
:102980007B68FA691A6109E008233B627B68FA698F
:102990005A6103E000233B6200E000BFBB69FF2BEC
:1029A00001D87B6801E07B6804337B61BB69FF2B46
:1029B00002D87B6A9B0002E07B6A083B9B003B617C
:1029C0007B691A680F213B6901FA03F3DB431A4064
:1029D000396A3B6901FA03F31A437B691A603B6861
:1029E0005B6803F08053002B00F0B1804D4B9B6976
:1029F0004C4A43F0010393614A4B9B6903F0010386
:102A0000BB60BB68484A7B6A9B08023352F823309C
:102A1000FB607B6A03F003039B000F2202FA03F3BF
:102A2000DB43FA681340FB607B68404A934213D053
:102A30007B683F4A93420DD07B683E4A934207D061
:102A40007B683D4A934201D1032306E0042304E05E
:102A5000022302E0012300E000237A6A02F003026D
:102A600092009340FA681343FB602F497B6A9B08EE
:102A70000233FA6841F823203B685B6803F4803333
:102A8000002B06D02D4B1A682C49BB6913430B60F1
:102A900006E02A4B1A68BB69DB43284913400B60E8
:102AA0003B685B6803F40033002B06D0234B5A6865
:102AB0002249BB6913434B6006E0204B5A68BB694F
:102AC000DB431E4913404B603B685B6803F4801393
:102AD000002B06D0194B9A681849BB6913438B60C9
:102AE00006E0164B9A68BB69DB43144913408B60C0
:102AF0003B685B6803F40013002B21D00F4BDA68AE
:102B00000E49BB691343CB6021E000BF00003210C7
:102B100000003110000022100000211000001210EF
:102B200000001110001002400000014000080140A8
:102B3000000C01400010014000140140000401405D
:102B40000B4BDA68BB69DB4309491340CB607B6AF6
:102B500001337B623B681A687B6A22FA03F3002B1D
:102B60007FF48EAE00BF00BF2C37BD4680BC7047DF
:102B70000004014080B586B000AF78607B68002B10
:102B800001D101236CE27B681B6803F00103002B79
:102B900000F08780924B5B6803F00C03042B0CD091
:102BA0008F4B5B6803F00C03082B12D18C4B5B68D6
:102BB00003F48033B3F5803F0BD1894B1B6803F4DA
:102BC0000033002B6CD07B685B68002B68D101233D
:102BD00046E27B685B68B3F5803F06D1804B1B689B
:102BE0007F4A43F4803313602EE07B685B68002BE0
:102BF0000CD17B4B1B687A4A23F480331360784BEB
:102C00001B68774A23F4802313601DE07B685B68B0
:102C1000B3F5A02F0CD1724B1B68714A43F480238B
:102C200013606F4B1B686E4A43F4803313600BE0F4
:102C30006B4B1B686A4A23F480331360684B1B6834
:102C4000674A23F4802313607B685B68002B13D0F2
:102C5000FFF7D0FC386108E0FFF7CCFC02463B6987
:102C6000D31A642B01D90323FAE15D4B1B6803F4EB
:102C70000033002BF0D014E0FFF7BCFC386108E013
:102C8000FFF7B8FC02463B69D31A642B01D9032332
:102C9000E6E1534B1B6803F40033002BF0D100E056
:102CA00000BF7B681B6803F00203002B63D04C4B12
:102CB0005B6803F00C03002B0BD0494B5B6803F0FF
:102CC0000C03082B1CD1464B5B6803F48033002BAC
:102CD00016D1434B1B6803F00203002B05D07B6821
:102CE0001B69012B01D00123BAE13D4B1B6823F086
:102CF000F8027B685B69DB00394913430B603AE0FB
:102D00007B681B69002B20D0364B01221A60FFF72D
:102D100071FC386108E0FFF76DFC02463B69D31A8D
:102D2000022B01D903239BE12D4B1B6803F0020307
:102D3000002BF0D02A4B1B6823F0F8027B685B69FC
:102D4000DB00274913430B6015E0264B00221A6075
:102D5000FFF750FC386108E0FFF74CFC02463B6986
:102D6000D31A022B01D903237AE11D4B1B6803F010
:102D70000203002BF0D17B681B6803F00803002BD3
:102D80003AD07B689B69002B19D0174B01221A603F
:102D9000FFF730FC386108E0FFF72CFC02463B6986
:102DA000D31A022B01D903235AE10D4B5B6A03F0BE
:102DB0000203002BF0D0012000F0D8FA1CE00A4BEF
:102DC00000221A60FFF716FC38610FE0FFF712FCD3
:102DD00002463B69D31A022B08D9032340E100BF06
:102DE0000010024000004242800442429E4B5B6A57
:102DF00003F00203002BE9D17B681B6803F0040396
:102E0000002B00F0A6800023FB75974BDB6903F0D5
:102E10008053002B0DD1944BDB69934A43F08053D0
:102E2000D361914BDB6903F08053BB60BB68012326
:102E3000FB758E4B1B6803F48073002B18D18B4BF2
:102E40001B688A4A43F480731360FFF7D3FB386131
:102E500008E0FFF7CFFB02463B69D31A642B01D988
:102E60000323FDE0814B1B6803F48073002BF0D03B
:102E70007B68DB68012B06D17B4B1B6A7A4A43F0E7
:102E8000010313622DE07B68DB68002B0CD1764BCD
:102E90001B6A754A23F001031362734B1B6A724A63
:102EA00023F0040313621CE07B68DB68052B0CD164
:102EB0006D4B1B6A6C4A43F0040313626A4B1B6A36
:102EC000694A43F0010313620BE0674B1B6A664AD1
:102ED00023F001031362644B1B6A634A23F004036B
:102EE00013627B68DB68002B15D0FFF783FB38612A
:102EF0000AE0FFF77FFB02463B69D31A41F28832B2
:102F0000934201D90323ABE0574B1B6A03F0020342
:102F1000002BEED014E0FFF76DFB38610AE0FFF7FD
:102F200069FB02463B69D31A41F28832934201D9C8
:102F3000032395E04C4B1B6A03F00203002BEED1F8
:102F4000FB7D012B05D1484BDB69474A23F08053B9
:102F5000D3617B68DB69002B00F08180424B5B68AA
:102F600003F00C03082B61D07B68DB69022B46D190
:102F70003F4B00221A60FFF73DFB386108E0FFF786
:102F800039FB02463B69D31A022B01D9032367E0C0
:102F9000354B1B6803F00073002BF0D17B681B6A74
:102FA000B3F5803F08D1304B5B6823F400327B6877
:102FB0009B682D4913434B602B4B5B6823F47412C1
:102FC0007B68196A7B685B6A0B43274913434B6034
:102FD000274B01221A60FFF70DFB386108E0FFF76D
:102FE00009FB02463B69D31A022B01D9032337E0C0
:102FF0001D4B1B6803F00073002BF0D02FE01C4B1F
:1030000000221A60FFF7F6FA386108E0FFF7F2FADB
:1030100002463B69D31A022B01D9032320E0124B4D
:103020001B6803F00073002BF0D118E07B68DB69AC
:10303000012B01D1012313E00B4B5B68FB60FB68A4
:1030400003F480327B681B6A9A4206D1FB6803F462
:1030500070127B685B6A9A4201D0012300E0002372
:1030600018461837BD4680BD001002400070004071
:103070006000424280B584B000AF786039607B6800
:10308000002B01D10123D0E06A4B1B6803F007033A
:103090003A689A4210D9674B1B6823F007026549CA
:1030A0003B6813430B60634B1B6803F007033A68EC
:1030B0009A4201D00123B8E07B681B6803F0020349
:1030C000002B20D07B681B6803F00403002B05D085
:1030D000594B5B68584A43F4E06353607B681B6854
:1030E00003F00803002B05D0534B5B68524A43F4AE
:1030F00060535360504B5B6823F0F0027B689B6821
:103100004D4913434B607B681B6803F00103002BA0
:1031100040D07B685B68012B07D1474B1B6803F4E9
:103120000033002B15D101237FE07B685B68022B05
:1031300007D1414B1B6803F00073002B09D1012319
:1031400073E03D4B1B6803F00203002B01D1012308
:103150006BE0394B5B6823F003027B685B683649A0
:1031600013434B60FFF746FAF8600AE0FFF742FAB4
:103170000246FB68D31A41F28832934201D90323F5
:1031800053E02D4B5B6803F00C027B685B689B008F
:103190009A42EBD1274B1B6803F007033A689A4227
:1031A00010D2244B1B6823F0070222493B681343CB
:1031B0000B60204B1B6803F007033A689A4201D06A
:1031C000012332E07B681B6803F00403002B08D066
:1031D000194B5B6823F4E0627B68DB681649134394
:1031E0004B607B681B6803F00803002B09D0124B6F
:1031F0005B6823F460527B681B69DB000E49134354
:103200004B6000F021F802460B4B5B681B0903F092
:103210000F030A49CB5C22FA03F3094A1360094BF6
:103220001B681846FFF7A4F9002318461037BD465F
:1032300080BD00BF0020024000100240C87D000891
:10324000000000200400002090B48AB000AF2A4B98
:103250003C1D0FCB84E80F0040F201233B8000238C
:10326000FB610023BB6100237B6200237B610023A1
:103270003B62224B5B68FB61FB6903F00C03042B90
:1032800002D0082B03D02DE01D4B3B622DE0FB69E3
:103290009B0C03F00F0307F12802134413F8243C9E
:1032A0007B61FB6903F48033002B13D0134B5B6805
:1032B0005B0C03F0010307F12802134413F8283CC8
:1032C000BB617B690E4A02FB03F2BB69B2FBF3F3FD
:1032D0007B6204E07B690B4A02FB03F37B627B6A3F
:1032E0003B6202E0064B3B6200BF3B6A1846283750
:1032F000BD4690BC704700BFB87D0008001002407A
:1033000000127A0000093D0080B400AF024B1B6838
:103310001846BD4680BC70470000002080B500AF55
:10332000FFF7F2FF0246054B5B681B0A03F0070339
:103330000349CB5C22FA03F3184680BD001002401B
:10334000D87D000880B500AFFFF7DEFF0246054BD1
:103350005B68DB0A03F007030349CB5C22FA03F343
:10336000184680BD00100240D87D000880B485B0AA
:1033700000AF78600A4B1B680A4AA2FB03235B0A72
:103380007A6802FB03F3FB6000BFFB685A1EFA6019
:10339000002BF9D100BF00BF1437BD4680BC704779
:1033A00000000020D34D621080B582B000AF78607D
:1033B0007B68002B01D1012341E07B6893F83D300D
:1033C000DBB2002B06D17B68002283F83C207868B2
:1033D000FEF7D2FE7B68022283F83D207B681A68E4
:1033E0007B6804331946104600F070FA7B680122AE
:1033F00083F846207B68012283F83E207B68012207
:1034000083F83F207B68012283F840207B680122FB
:1034100083F841207B68012283F842207B680122E7
:1034200083F843207B68012283F844207B680122D3
:1034300083F845207B68012283F83D20002318464D
:103440000837BD4680BD000080B485B000AF78600D
:103450007B6893F83D30DBB2012B01D001233AE0C9
:103460007B68022283F83D207B681B68DA687B68F2
:103470001B6842F00102DA607B681B68184A9342BD
:103480000ED07B681B68B3F1804F09D07B681B6846
:10349000144A934204D07B681B68134A934211D1AB
:1034A0007B681B689B6803F00703FB60FB68062BC7
:1034B00010D07B681B681A687B681B6842F00102A9
:1034C0001A6007E07B681B681A687B681B6842F01B
:1034D00001021A60002318461437BD4680BC7047AD
:1034E000002C0140000400400008004080B582B07C
:1034F00000AF78607B681B681B6903F00203022B36
:1035000022D17B681B68DB6803F00203022B1BD10E
:103510007B681B686FF002021A617B6801221A77D0
:103520007B681B689B6903F00303002B03D078685A
:1035300000F0B1F905E0786800F0A4F9786800F0CF
:10354000B3F97B6800221A777B681B681B6903F05C
:103550000403042B22D17B681B68DB6803F004039F
:10356000042B1BD17B681B686FF004021A617B6817
:1035700002221A777B681B689B6903F44073002B57
:1035800003D0786800F087F905E0786800F07AF9F0
:10359000786800F089F97B6800221A777B681B68DD
:1035A0001B6903F00803082B22D17B681B68DB68CA
:1035B00003F00803082B1BD17B681B686FF008021F
:1035C0001A617B6804221A777B681B68DB6903F049
:1035D0000303002B03D0786800F05DF905E07868FC
:1035E00000F050F9786800F05FF97B6800221A77E4
:1035F0007B681B681B6903F01003102B22D17B68CA
:103600001B68DB6803F01003102B1BD17B681B6861
:103610006FF010021A617B6808221A777B681B68BA
:10362000DB6903F44073002B03D0786800F033F9B2
:1036300005E0786800F026F9786800F035F97B68D5
:1036400000221A777B681B681B6903F00103012BBA
:103650000ED17B681B68DB6803F00103012B07D1E7
:103660007B681B686FF001021A617868FEF73CFA0C
:103670007B681B681B6903F08003802B0ED17B687D
:103680001B68DB6803F08003802B07D17B681B6815
:103690006FF080021A61786800F077FA7B681B6827
:1036A0001B6903F04003402B0ED17B681B68DB686D
:1036B00003F04003402B07D17B681B686FF040028A
:1036C0001A61786800F0F9F87B681B681B6903F0E1
:1036D0002003202B0ED17B681B68DB6803F02003DE
:1036E000202B07D17B681B686FF020021A61786875
:1036F00000F042FA00BF0837BD4680BD80B584B0F7
:1037000000AF786039607B6893F83C30012B01D1C1
:103710000223B3E07B68012283F83C207B6802220D
:1037200083F83D207B681B689B68FB60FB6823F087
:103730007703FB60FB6823F47F43FB607B681B68B7
:10374000FA689A603B681B68B3F5005F3ED0B3F53A
:10375000005F00F28780B3F5805F00F08580B3F5ED
:10376000805F7FD8702B1AD0702B7BD8602B50D005
:10377000602B77D8502B3CD0502B73D8402B58D08F
:10378000402B6FD8302B64D0302B6BD8202B60D0DF
:10379000202B67D8002B5CD0102B5AD062E07B68BE
:1037A00018683B6899683B685A683B68DB6800F0BA
:1037B00066F97B681B689B68FB60FB6843F07703D6
:1037C000FB607B681B68FA689A604EE07B6818684B
:1037D0003B6899683B685A683B68DB6800F04FF9C2
:1037E0007B681B689A687B681B6842F480429A6019
:1037F0003BE07B6818683B6859683B68DB681A46A1
:1038000000F0C6F87B681B685021184600F01DF9CF
:103810002BE07B6818683B6859683B68DB681A4690
:1038200000F0E4F87B681B686021184600F00DF991
:103830001BE07B6818683B6859683B68DB681A4680
:1038400000F0A6F87B681B684021184600F0FDF8E0
:103850000BE07B681A683B681B681946104600F04D
:10386000F4F802E000BF00E000BF7B68012283F8AB
:103870003D207B68002283F83C2000231846103747
:10388000BD4680BD80B483B000AF786000BF0C3708
:10389000BD4680BC704780B483B000AF786000BF85
:1038A0000C37BD4680BC704780B483B000AF7860F1
:1038B00000BF0C37BD4680BC704780B483B000AFFA
:1038C000786000BF0C37BD4680BC704780B485B0BF
:1038D00000AF786039607B681B68FB607B68294AB1
:1038E00093420BD07B68B3F1804F07D07B68264AA8
:1038F000934203D07B68254A934208D1FB6823F0AA
:103900007003FB603B685B68FA681343FB607B688D
:103910001C4A93420BD07B68B3F1804F07D07B6881
:10392000194A934203D07B68184A934208D1FB6836
:1039300023F44073FB603B68DB68FA681343FB6069
:10394000FB6823F080023B685B691343FB607B6884
:10395000FA681A603B689A687B68DA623B681A68A2
:103960007B689A627B68074A934203D13B681A6975
:103970007B681A637B6801225A6100BF1437BD4619
:1039800080BC7047002C014000040040000800404B
:1039900080B487B000AFF860B9607A60FB681B6ADA
:1039A0007B61FB681B6A23F00102FB681A62FB68FB
:1039B0009B693B613B6923F0F0033B617B681B0122
:1039C0003A6913433B617B6923F00A037B617A699F
:1039D000BB6813437B61FB683A699A61FB687A694B
:1039E0001A6200BF1C37BD4680BC704780B487B0E8
:1039F00000AFF860B9607A60FB681B6A23F01002C0
:103A0000FB681A62FB689B697B61FB681B6A3B6110
:103A10007B6923F470437B617B681B037A691343E2
:103A20007B613B6923F0A0033B61BB681B013A69E2
:103A300013433B61FB687A699A61FB683A691A62D1
:103A400000BF1C37BD4680BC704780B485B000AF56
:103A5000786039607B689B68FB60FB6823F07003CB
:103A6000FB603A68FB68134343F00703FB607B6825
:103A7000FA689A6000BF1437BD4680BC704780B4B6
:103A800087B000AFF860B9607A603B60FB689B6804
:103A90007B617B6923F47F437B613B681A027B680F
:103AA0001A43BB6813437A6913437B61FB687A69E5
:103AB0009A6000BF1C37BD4680BC704780B485B09B
:103AC00000AF786039607B6893F83C30012B01D1FE
:103AD000022346E07B68012283F83C207B680222B7
:103AE00083F83D207B681B685B68FB607B681B6814
:103AF0009B68BB60FB6823F07003FB603B681B683E
:103B0000FA681343FB607B681B68FA685A607B683D
:103B10001B68164A93420ED07B681B68B3F1804F36
:103B200009D07B681B68124A934204D07B681B68EB
:103B3000104A93420CD1BB6823F08003BB603B6802
:103B40005B68BA681343BB607B681B68BA689A609D
:103B50007B68012283F83D207B68002283F83C20AB
:103B6000002318461437BD4680BC7047002C014026
:103B7000000400400008004080B483B000AF7860CB
:103B800000BF0C37BD4680BC704780B483B000AF27
:103B9000786000BF0C37BD4680BC704780B582B0EE
:103BA00000AF78607B68002B01D101233FE07B6888
:103BB00093F83D30DBB2002B06D17B68002283F8FE
:103BC0003C207868FEF7FEFA7B68242283F83D20CB
:103BD0007B681B68DA687B681B6822F40052DA6035
:103BE000786800F005F97B681B681A697B681B68B8
:103BF00022F490421A617B681B685A697B681B68D3
:103C000022F02A025A617B681B68DA687B681B68AD
:103C100042F40052DA607B6800221A647B6820223A
:103C200083F83D207B68202283F83E20002318463D
:103C30000837BD4680BD80B58AB002AFF860B96074
:103C40003B601346FB8000237B61FB6893F83D30AB
:103C5000DBB2202B7CD1BB68002B02D0FB88002B71
:103C600001D1012375E0FB6893F83C30012B01D1B1
:103C700002236EE0FB68012283F83C20FB680022EF
:103C80001A64FB68212283F83D20FEF7B3FC7861BB
:103C9000FB68FA889A84FB68FA88DA84FB689B6878
:103CA000B3F5805F08D1FB681B69002B04D10023AA
:103CB000FB61BB68BB6103E0BB68FB610023BB61C8
:103CC000FB68002283F83C202AE03B6800937B6974
:103CD00000228021F86800F040F80346002B01D054
:103CE000032336E0FB69002B0BD1BB691B881A4606
:103CF000FB681B68C2F308025A60BB690233BB61F0
:103D000007E0FB691A78FB681B685A60FB6901339E
:103D1000FB61FB68DB8C9BB2013B9AB2FB68DA84E7
:103D2000FB68DB8C9BB2002BCFD13B6800937B6997
:103D300000224021F86800F010F80346002B01D063
:103D4000032306E0FB68202283F83D20002300E0E7
:103D5000022318462037BD4680BD80B584B000AF31
:103D6000F860B9603B601346FB712CE0BB69B3F1AE
:103D7000FF3F28D0BB69002B07D0FEF73BFC024673
:103D80003B68D31ABA699A421DD2FB681B68DA688D
:103D9000FB681B6822F4D072DA60FB681B685A6902
:103DA000FB681B6822F001025A61FB68202283F83D
:103DB0003D20FB68202283F83E20FB68002283F828
:103DC0003C2003230FE0FB681B681A68BB681340A4
:103DD000BA689A420CBF01230023DBB21A46FB7972
:103DE0009A42C3D0002318461037BD4680BD00005C
:103DF00080B584B000AF78607B681B681B6923F4D2
:103E000040517B68DA687B681B680A431A617B68EB
:103E10009A687B681B691A437B685B691343BB60C4
:103E20007B681B68DB6823F4B05323F00C037A68CB
:103E30001268B9680B43D3607B681B685B6923F425
:103E400040717B689A697B681B680A435A617B688A
:103E50001B682C4A934203D1FFF774FAF86002E022
:103E6000FFF75CFAF860FA6813469B0013449A0067
:103E70001A447B685B689B00B2FBF3F3224AA2FB07
:103E800003235B091901FA6813469B0013449A0047
:103E90001A447B685B689B00B2FBF3F21A4BA3FBEE
:103EA00002035B09642000FB03F3D31A1B013233C6
:103EB000154AA2FB03235B0903F0F0031944FA68D7
:103EC00013469B0013449A001A447B685B689B006E
:103ED000B2FBF3F20C4BA3FB02035B09642000FB73
:103EE00003F3D31A1B013233074AA2FB03235B09F6
:103EF00003F00F027B681B680A449A6000BF10370A
:103F0000BD4680BD003801401F85EB510A220021CB
:103F100000F038BD014B1868704700BF0C0000204E
:103F200070B500260C4D0D4C641BA410A64209D19F
:103F300003F014FF00260A4D0A4C641BA410A6428D
:103F400005D170BD55F8043B98470136EEE755F8AA
:103F5000043B98470136F2E708820008088200080F
:103F6000088200080C82000803460244934200D1F4
:103F7000704703F8011BF9E7002B2DE9F0471F46B6
:103F8000BBBF03F100431F4600232D2388B0144616
:103F9000129A109D1370149BDDF84CA023F020089A
:103FA000B8F1460F05D0B8F1450F00D10135022315
:103FB00000E0032307AA049206AACDE902A2CDE9F4
:103FC000003522463B4600F0AFFDB8F1470F0646EC
:103FD00002D1119BDB0722D5B8F1460F06EB05098C
:103FE00010D13378302B0AD10022002320463946E5
:103FF000FCF7DAFC18B9C5F10105CAF80050DAF887
:10400000003099440022002320463946FCF7CCFCBE
:1040100008B1CDF81C903022079B4B4507D33046A2
:10402000079B159A9B1B136008B0BDE8F087591CCD
:1040300007911A70F0E70346F7B5002903F8022B41
:10404000B6BF2D222B224942092942702BDD0DF1EA
:104050000704A4460A2791FBF7F60A46A64607FB83
:104060001615632A05F13005314604F1FF340EF8C8
:10407000015CF0DC3031AEF1020504F8011C294688
:10408000441C61450AD30DF10902A2EB0E026545FD
:1040900088BF00221344181A03B0F0BD11F8012B99
:1040A00004F8012FEDE7302330318370C170031D18
:1040B000F1E700002DE9F04F91B00C46DDF8688083
:1040C00016461F46054601F01DFB03681846099376
:1040D000FCF73EF800230E93D8F800300A9007331F
:1040E00023F0070303F1080294F81890D4F800B005
:1040F000C8F80020D3E90023C4E91223D4E9128AC6
:104100002AF000430B934FF0FF3240469C4B0B9933
:10411000FCF77CFC70BB4FF0FF324046984B0B998C
:10412000FCF756FC30BB0022002340465146FCF70A
:1041300045FC10B12D2384F84330924B9248B9F1DD
:10414000470F94BF9846804603234FF0000A23612F
:104150002BF00403236033462146284600970FAA1C
:1041600000F0D4F9013040F090804FF0FF3011B0F2
:10417000BDE8F08F4246534640465146FCF746FCA8
:1041800048B1BAF1000FB8BF2D238048B8BF84F8FA
:1041900043307F4BD3E7636809F0DF015A1C42D1FB
:1041A00006236360002206920EAACDE904920DAAAE
:1041B0004BF4806303920DF13302CDE901322360A9
:1041C000636842460093284653460B91FFF7D4FE9E
:1041D0000B99804647290D9908D1C81C02DB6368FA
:1041E000994240DDA9F102095FFA89F9B9F1650F39
:1041F0001FD84A46013904F150000D91FFF71BFF0B
:104200000E9A82461318012A236102DC2268D20723
:1042100001D5013323619DF83330002B9BD02D2332
:1042200084F8433097E74729BCD1002BBAD101234A
:10423000B7E7B9F1660F18D1002963680BDD21617A
:1042400013B92268D00702D501330B4423614FF024
:10425000000AA165DFE713B92268D20701D502334E
:10426000F4E70123F2E74FF067090E9B994205DB63
:1042700023682161D807EAD54B1CE7E70029CCBFAA
:104280000122C1F102021344E0E723685A0507D472
:104290002369424631462846B84701302BD164E7AE
:1042A000B9F1650F40F2DD80D4E91201002200234C
:1042B000FCF77AFB002833D0012331462846354AE3
:1042C000B84701303FF451AFDDE90D239A4202DBDC
:1042D0002368D8070FD5DDE9092331462846B847BA
:1042E00001303FF442AF4FF0000804F11A090E9B71
:1042F000013B434509DC23689B0700F10281E0682C
:104300000F9B9842B8BF184631E701234A46314611
:104310002846B84701303FF428AF08F10108E6E726
:104320000D9B002B38DC012331462846194AB8473B
:1043300001303FF41AAFDDE90D23134302D12368A6
:10434000D907D8D5DDE9092331462846B8470130D9
:104350003FF40BAF4FF0000904F11A0A0D9B5B42CA
:104360004B4501DC0E9B94E701235246314628461B
:10437000B84701303FF4F9AE09F10109EEE700BF9B
:10438000FFFFEF7FE47D0008E87D0008F07D000876
:10439000EC7D0008F47D00080E9AA36D9A42A8BF38
:1043A0001A46002A914637DC4FF0000B29EAE979DA
:1043B00004F11A02D4F858A0AAEB09035B4533DCD8
:1043C000DDE90D239A423BDB2368DA0738D40E9AE5
:1043D0000D99A2EB0A03A2EB01099945A8BF9946E2
:1043E000B9F1000F34DC4FF0000829EAE97904F153
:1043F0001A0ADDE90D239B1AA3EB090343457FF756
:104400007AAF0123524631462846B84701303FF47F
:10441000ACAE08F10108ECE71346314642462846A7
:10442000B8470130C0D1A0E60123314628460B929F
:10443000B84701303FF499AE0B9A0BF1010BB9E785
:104440003146DDE909232846B8470130BFD18CE663
:104450004B463146284608EB0A02B8470130C2D124
:1044600083E60E9A012A01DCDB0737D50123424699
:1044700031462846B84701303FF477AEDDE90923DD
:1044800031462846B84701303FF46FAED4E91201F7
:1044900000220023FCF788FAD8B90E9B08F101022C
:1044A000013B31462846B84701300ED15DE6012375
:1044B0004A4631462846B84701303FF456AE08F127
:1044C00001080E9B013B4345F1DC534604F15002C9
:1044D000E0E64FF0000804F11A09F2E70123424632
:1044E000DFE701234A4631462846B84701303FF40A
:1044F0003CAE08F10108E3680F995B1A4345F0DC14
:10450000FDE64FF0000804F11909F4E72DE9F04742
:10451000164699468A680B6907469342B8BF134608
:10452000336091F843200C46DDF820800AB1013356
:1045300033602368990642BF3368023333602568CD
:1045400015F0060506D104F1190AE36832689B1AD2
:10455000AB4228DC94F84320131E226818BF0123C5
:1045600092062DD44946384604F14302C047013033
:1045700020D02368E56803F00603042B18BF00254C
:1045800032684FF00006A36808BFAD1A226908BF61
:1045900025EAE5759342C4BF9B1AED181A34B5425B
:1045A0001AD1002008E00123524649463846C04748
:1045B000013003D14FF0FF30BDE8F0870135C4E78B
:1045C0003020E11881F843005A1C94F84510224429
:1045D000023382F84310C5E7012322464946384694
:1045E000C0470130E6D00136D9E700002DE9FF478A
:1045F0000C46277E9146782F80469A460C9904F106
:10460000430207D8622F0AD8002F00F0D980582F14
:1046100000F0A48004F1420684F842703AE0A7F169
:104620006303152BF6D801A050F823F08546000847
:10463000994600081546000815460008154600086A
:10464000154600089946000815460008154600085A
:104650001546000815460008A7470008C946000887
:10466000894700081546000815460008C947000894
:1046700015460008C94600081546000815460008FA
:10468000914700080B6804F142061A1D1B680A6076
:1046900084F842300123A4E0256808682E0600F162
:1046A00004030AD505680B60002D03DA2D236D4243
:1046B00084F843300A235E4819E015F0400F05687E
:1046C0000B6018BF2DB2EFE70B682568181D086056
:1046D000280601D51D6802E06906FBD51D886F2FED
:1046E0000CBF08230A235248002184F8431066684F
:1046F000002EA8BF2168A660A4BF21F0040121609C
:104700000DB9002E4DD01646B5FBF3F103FB115742
:10471000C75D06F8017D2F46BB420D46F4D9082B34
:104720000BD12368DF0708D5236961689942DEBF92
:10473000302306F8013C06F1FF36921B22614B46FE
:1047400021464046CDF800A003AAFFF7DFFE013066
:104750004CD14FF0FF3004B0BDE8F087344884F806
:1047600045700E68236856F8045B1F060E6014D56A
:10477000D90744BF43F0200323601DB9236823F009
:10478000200323601023AFE7236843F02003236056
:104790007823284884F84530E3E75E0648BFADB289
:1047A000E6E71646BBE70B6826681D1D60690D60CD
:1047B00035061B6801D5186002E07106FBD518802C
:1047C000002316462361BAE70B681A1D0A601E68AB
:1047D00000213046626800F0A1FF08B1801B6060D4
:1047E00063682361002384F84330A8E732464946D2
:1047F00040462369D0470130ABD023689B0713D4D0
:10480000E068039B9842B8BF1846A4E701233246EC
:1048100049464046D04701309BD00135E3680399B3
:104820005B1AAB42F2DCEBE7002504F11906F5E771
:10483000F67D0008077E00080EB46FF0004100B559
:104840009CB01DAB0290069007910491084809495D
:1048500053F8042B0591006802A9019301F00CFCA8
:104860000022029B1A701CB05DF804EB03B0704785
:104870000C0000200802FFFF012B2DE9F0478646BF
:1048800001D0242B06D9FFF745FB16230360002037
:10489000BDE8F0878C463A4E60461CF8014BA55D9A
:1048A00015F00805F8D12D2C33D14FF001089CF8F4
:1048B000004000F1020C002B5DD0102B0CD1302CED
:1048C0000AD19CF8000000F0DF0058284ED11023D8
:1048D0009CF801400CF1020C002508F10047013F53
:1048E000B7FBF3F9284603FB197AA4F13006092E29
:1048F00018D83446A34224DD002D1FDB81451DD38B
:1049000001D1A2451ADB012500FB03401CF8014B35
:10491000EBE72B2C08BF9CF80040A84608BF00F12D
:10492000020CC8E7A4F14106192E01D8373CE1E793
:10493000A4F16106192E04D8573CDBE74FF0FF3590
:10494000E4E7002D08DA22233846CEF80030002AAA
:104950009ED00CF1FF3107E0B8F1000F00D04042CB
:10496000002A95D0002DF4D1116091E73024002B5E
:10497000B2D10823B0E7302CA3D00A23ACE700BFA4
:10498000197E000813460A46014602480068FFF7F0
:1049900073BF00BF0C00002030B5141E05469BB04D
:1049A000184605DA8B234FF0FF302B601BB030BD6B
:1049B0004FF40273ADF80C300CBF234604F1FF3303
:1049C000029305934FF6FF73024600910491ADF8F0
:1049D0000E3069461E9B284601F04EFB431CBCBFAF
:1049E0008B232B60002CE1D00022009B1A70DDE7A6
:1049F00007B5009313460A46014603480068FFF7CF
:104A0000CBFF03B05DF804FB0C0000202DE9F74F4D
:104A100003690C690746A342C0F28380013C00F1A0
:104A2000140501F1140805EB8403019358F82430B0
:104A300055F8242001339A42B2FBF3F64FEA840B77
:104A400008EB840932D34FF0000E4046AC46F246E4
:104A500050F8042B93B206FB03E3120C4FEA134EFB
:104A600006FB02E29BB2AAEB0303DCF800A04FEACC
:104A7000124E1FFA8AFA53441FFA82FADCF8002019
:104A80008145CAEB124202EB23429BB243EA024346
:104A90004FEA224A4CF8043BDAD255F80B302BB9D6
:104AA000019B043B9D421A462FD33C61384601F0DE
:104AB000CBF8002825DB28464FF0000C013658F8CB
:104AC000041BD0F800E08BB2ACEB03031FFA8EF2AC
:104AD00013440A0CC2EB1E4202EB23429BB243EA90
:104AE0000243C1454FEA224C40F8043BE7D255F857
:104AF000242005EB840322B9043B9D421A460AD3C5
:104B00003C61304603B0BDE8F08F1268043B002AD8
:104B1000CBD1013CC6E71268043B002AF0D1013C2E
:104B2000EBE70020EEE700002DE9F04F16461F46A8
:104B3000446A99B00546CDE90467DDF8948074B9FC
:104B4000102000F0E3FD0246686220B9EA21AE4B76
:104B5000AE4801F0A1FBC0E901440460C4606B6A87
:104B6000196851B15A68012393404A608B60284606
:104B700000F030FE00226B6A1A603B1EAFBF0023BC
:104B8000012223F000430593A8BFC8F80030DDF8E8
:104B900014909F4BB8BFC8F8002033EA090319D11D
:104BA00042F20F73249A1360C9F31303334300F0E6
:104BB0008085269B53B9974B22E0974B0893083387
:104BC000269A1360089819B0BDE8F08F914B0893AE
:104BD0000333F5E7DDE90434CDE90C34DDE90C01FC
:104BE00000220023FBF7E0FE804658B10123249AFF
:104BF0001360269B002B00F0598588481860431EDF
:104C00000893DFE716AB019317AB00932846DDE965
:104C10000C2301F0C5F8C9F30A548246002C7ED05B
:104C2000DDE90C010D9BA4F2FF34C3F3130343F041
:104C30007F5141F44011CDF84C800022784BFBF7B6
:104C400093FA6BA3D3E90023FBF746FC6AA3D3E9ED
:104C50000023FBF78BFA064620460F46FBF7D2FBF4
:104C600067A3D3E90023FBF737FC02460B46304627
:104C70003946FBF77BFA06460F46FBF7DDFE0022BE
:104C80008146002330463946FBF798FE48B1484636
:104C9000FBF7B8FB32463B46FBF786FE08B909F145
:104CA000FF39B9F1160F57D8DDE90C015D4B03EB65
:104CB000C903D3E90023FBF781FE00284ED000236F
:104CC00009F1FF390F93169B1C1B631E099349BF03
:104CD000C4F1010300230693002354BF06930993F4
:104CE000B9F1000F3CDB099BCDF838904B44099398
:104CF00000230A93229B092B6CD8052BC4BF043BCD
:104D00002293229BC8BF0024A3F10203D8BF012431
:104D1000032B00F28B80DFE803F02D4F4D5BDDE9C4
:104D200016431C4404F23243202BC3BFC3F140039B
:104D300004F2124009FA03F3C3F12003C6BF26FAB6
:104D400000F0184306FA03F0FBF74CFB0123A1F136
:104D5000F871013C139370E70123B3E70F90B2E7BA
:104D6000069BA3EB09030693C9F100030A930023F2
:104D70000E93BFE700230B93239B002B59DC4FF0CE
:104D8000010B5B46CDF808B0CDF88CB00022686A04
:104D90004260042202F114069E4241684FD928461F
:104DA00000F0D8FC089000284DD102464FF4D57190
:104DB0001D4BCDE60123DEE700230B93239B09EB7C
:104DC000030B0BF10103012B0293B8BF0123DDE7B5
:104DD0000123F2E7012400230B9422934FF0FF3BC1
:104DE00000221223CDF808B02392CFE7AFF3008062
:104DF00061436F63A787D23FB3C8608B288AC63FE1
:104E0000FB799F501344D33F267F00083D7F000865
:104E10000000F07F227F0008197F0008F57D000860
:104E20000000F83F388000089C7F000801230B93A6
:104E3000D4E7DDF88CB05B46CDF808B0A6E70131C9
:104E400041605200A6E76B6A089A1A60029B0E2B1B
:104E500000F2A880002C00F0A580B9F1000F34DD2D
:104E60009A4A09F00F0302EBC30319F4807FD3E9D8
:104E70000034CDE910344FEA291416D0DDE90C01D5
:104E8000934B0327D3E90823FBF750FCCDE904013A
:104E900004F00F048E4E54B9DDE91023DDE904015E
:104EA000FBF744FCCDE9040129E00227F2E7E10722
:104EB00008D5DDE91001D6E90023FBF70DFBCDE9AC
:104EC0001001013764100836E5E700F0A580DDE940
:104ED0000C01C9F100047D4B04F00F0203EBC20387
:104EE000D3E90023FBF7F8FA02270023CDE90401F8
:104EF000774E2411002C40F08480002BD2D10F9BE0
:104F0000002B00F08B80DDE90434CDE91034DDE9BD
:104F1000100100226F4BFBF751FD00287ED0029B51
:104F2000002B7BD0BBF1000F38DDDDE91001002242
:104F3000694BFBF7D1FA5C46CDE9040109F1FF3872
:104F400001373846FBF75EFADDE90423FBF7C4FAC4
:104F50000022624BFBF70AF9A1F15076CDE910016E
:104F60001196002C5DD1DDE9040100225C4BFBF7BA
:104F7000FBF802460B46CDE904233346109AFBF7B3
:104F80003BFD002840F09E82DDE90401109A06F105
:104F90000043FBF713FD002840F09282DDE90C345A
:104FA000CDE90434179B002BC0F25381B9F10E0FE9
:104FB00000F34F81454B03EBC903D3E90034CDE93E
:104FC0000634239B002B80F2DB80029B002B00F336
:104FD000D78040F07482DDE906010022404BFBF7E8
:104FE0007BFADDE90423FBF7FDFC029C2646002842
:104FF00040F04A823123089F09F1010907F8013B7B
:1050000046E2E20705D5D6E90023FBF765FA01235E
:105010000137641008366DE7022770E7C846029C26
:105020008FE70899294B214412910B9903EBC40394
:10503000DDE9106753E90223002955D000202949F2
:10504000FBF774FB3B463246FBF78EF8CDE91001C7
:10505000089FDDE90401FBF7EFFC0446FBF7D2F9FA
:1050600002460B46DDE90401FBF77EF802460B46DB
:105070003034CDE90423DDE9102307F8014BFBF7B9
:105080009DFC002874D1DDE9042300201149FBF7C1
:105090006BF8DDE91023FBF791FC002840F0B680A7
:1050A000129B9F423FF47AAFDDE9100100220A4BC8
:1050B000FBF712FA0022CDE91001DDE90401064BED
:1050C000FBF70AFACDE90401C3E700BF3880000806
:1050D000108000080000F03F0000244000001C4049
:1050E000000014400000E03F30463946FBF7F4F979
:1050F000129BCDE91001089C1493DDE90401FBF734
:105100009BFC1590FBF77EF902460B46DDE9040196
:10511000FBF72AF8159B0646303304F8013B129B37
:105120000F469C424FF0000224D1DDE91001B34B41
:10513000FBF71CF802460B4630463946FBF75CFC91
:10514000002862D1DDE910230020AC49FBF70CF800
:1051500002460B4630463946FBF730FC00283FF448
:105160001DAF149F7B1E149317F8013C302BF8D011
:10517000C1463AE0A24BFBF7AFF9CDE90401BCE729
:10518000089FDDE90623DDE90401FBF7CFFAFBF711
:1051900053FC0446FBF736F9DDE90623FBF79CF9DF
:1051A00004F130060B460246DDE90401FAF7DCFFA4
:1051B00007F8016B089E029BBE1BB3423AD1024620
:1051C0000B46FAF7D3FF02460B46CDE90223DDE991
:1051D0000623FBF711FC58BBDDE90623DDE90201DC
:1051E000FBF7E2FB08B1E10722D42846514600F064
:1051F000F1FA00233B70249B09F101001860269B03
:10520000002B3FF4DFAC1F60DCE427463B461F4623
:1052100013F8012D392A07D1089A9A42F7D1302282
:10522000089908F101080A701A7801321A709FE78C
:10523000C846EBE70022724BFBF74EF902460B46DD
:10524000CDE9042300220023FBF7AEFB002898D011
:10525000CBE70B9A002A00F0CD80229A012A00F3B6
:10526000AF80139A002A00F0A78003F233430A9C10
:10527000069F069A01211A440692099A28461A4462
:10528000099200F061FB0646002F0CDD099B002B04
:1052900009DDBB42A8BF3B46069AFF1AD21A069206
:1052A000099AD31A09930A9BF3B10B9B002B00F0C8
:1052B000A980002C10DD31462246284600F0FEFB76
:1052C000524601460646284600F054FB80465146A9
:1052D000284600F07FFAC2460A9B1A1B04D05146AA
:1052E000284600F0EBFB82460121284600F02CFB0B
:1052F0000E9B0446002B40F387801A460146284641
:1053000000F0DCFB229B0446012B40F380804FF031
:105310000008236904EB8303186900F0C7FAC0F1A1
:105320002000099B184410F01F0000F09280C0F18B
:105330002003042B40F38A80C0F11C00069B074425
:1053400003440693099B03440993069B002B05DD48
:1053500051461A46284600F00BFC8246099B002B5A
:1053600005DD21461A46284600F002FC04460F9B44
:10537000002B70D02146504600F066FC00286ADA07
:10538000002351460A22284600F046FA0B9B82462B
:1053900009F1FF39002B00F09381314600230A22E6
:1053A000284600F039FABBF1000F064600F393805F
:1053B000229B022B57DC8EE0169BC3F1360356E787
:1053C000029B5C1E0A9BA342B7BF0A9B1C1BE21AEE
:1053D0000E9BBEBF0A949B180E93029BB8BF00247D
:1053E000002BBBBF069B029A069F9F1AACBF029B75
:1053F00000233EE70A9C069F0B9E45E70000E03F26
:10540000000024400A9A6AE7229B012B19DC049BC6
:10541000BBB9059BC3F313039BB9059B23F0004362
:105420001B0D1B0583B14FF00108069B013306934A
:10543000099B013309930E9B002B7FF46AAF012077
:105440006FE74FF00008F6E79846F4E73FF47DAFCA
:1054500018461C3072E7029B002B36DC229B022B85
:1054600033DDDDF808B0BBF1000F0DD121465B46FE
:105470000522284600F0D0F901460446504600F0C7
:10548000E3FB00283FF7B6AD239B089F6FEA0309B3
:105490004FF000082146284600F09CF9002E3FF40A
:1054A000A4AEB8F1000F05D0B04503D04146284660
:1054B00000F090F93146284600F08CF995E600247A
:1054C0002646E1E7C146264694E50B9BDDF808B089
:1054D000002B00F0FC80002F05DD31463A462846BF
:1054E00000F046FB0646B8F1000F5CD02846716814
:1054F00000F030F9074628B9024640F2EA217E4B17
:10550000FFF726BB326906F10C01023292000C3023
:1055100000F012F901223946284600F029FBB04676
:105520000646089B01330293089B5B440A93049B45
:1055300003F001030993029B2146504603F1FF3B10
:10554000FFF764FA034641463033049050460B930C
:1055500000F07AFB324606902146284600F090FB88
:10556000C26807460B9B02BB0146504600F06CFB2D
:1055700002460B9B39462846CDE90B3200F02AF94A
:10558000229B0C9A029F43EA0201099B0B430B9B4F
:105590000DD1392B27D0069A002A01DD049B313327
:1055A0008BF8003076E73046B9E70122E2E706994A
:1055B000002904DB229801430998014320D1002AE5
:1055C000EEDD514601222846029300F0D1FA214631
:1055D000824600F039FB0028029B02DCE0D1DA07AA
:1055E000DED5392BDAD139238BF800303B461F4604
:1055F00017F8012C013B392A50D001321A7049E7C3
:10560000002A03DD392BEED00133C9E7029A0A994B
:1056100002F8013C8A422AD0514600230A22284639
:1056200000F0FAF8B04582464FF000034FF00A024E
:105630004146284607D100F0EFF880460646029B17
:105640000133029377E700F0E7F831468046002304
:105650000A22284600F0E0F80646F0E7BBF1000F0A
:10566000CCBF5F4601274FF00008089A1744514607
:1056700001222846029300F07BFA2146824600F080
:10568000E3FA0028B2DC02D1029BDB07AED43B4632
:105690001F4613F8012D302AFAD0FBE6089A9A42E9
:1056A000A5D1312309F101091370F3E6134BFFF77C
:1056B000A7BA269B002B7FF480AA114BFFF7A0BA54
:1056C000BBF1000F03DC229B022B3FF7CCAE089FFF
:1056D00021465046FFF79AF9089A00F1300307F87F
:1056E000013BBA1A9345B9DD514600230A222846E8
:1056F00000F092F88246EBE79C7F0008F47D0008FA
:10570000197F00080048704760010020024B0146E5
:10571000186800F0FBBB00BF0C000020034610B56A
:10572000C9B202449342184601D1002003E0047834
:1057300001338C42F6D110BD0A44914200F1FF338F
:1057400000D1704710B511F8014B914203F8014F99
:10575000F9D110BD70B5466A04460D4676B91020E1
:10576000FFF7D4FF0246606220B96621174B184844
:1057700000F092FDC0E901660660C660666AF368E3
:1057800083B1636ADB6853F82500B8B9012101FAD7
:1057900005F6721D2046920000F05EFB60B1C0E984
:1057A00001560EE021220421204600F055FB636AD9
:1057B000F060DB68002BE4D1002070BD026843F884
:1057C00025200023C0E90333F7E700BF267F000848
:1057D000AD7F000870B5466A05460C4676B91020C4
:1057E000FFF794FF0246686220B98A21084B0948F6
:1057F00000F052FDC0E901660660C6603CB16B6A0C
:105800006268DB6853F82210216043F8224070BDC3
:10581000267F0008AD7F00082DE9F04198460C4630
:1058200000230E69074601F1140005680133A9B28F
:1058300002FB01812D0C4FEA114C02FB05C589B218
:1058400001EB05419E424FEA154840F8041BECDC91
:10585000B8F1000F22D0A368B34219DC6168384662
:105860000131FFF777FF054628B90246B5210D4BF8
:105870000D4800F011FD226904F10C010232920082
:105880000C30FFF759FF21463846FFF7A3FF2C469F
:1058900004EB86030136C3F8148026612046BDE878
:1058A000F08100BF9C7F0008AD7F0008020C12044D
:1058B0000346CAB90304102013F07F4F04BF1B0234
:1058C000083013F0704F04BF1B01043013F0404F39
:1058D00004BF9B000230002B05DB13F0804F00F16A
:1058E000010008BF202070470020E5E7036802465A
:1058F00013F007000BD0D90722D4980749BF5B08E3
:105900009B08012013605CBF02201360704799B2AE
:1059100009B910201B0C13F0FF0F04BF1B0A08303D
:10592000190704BF1B090430990704BF9B08023004
:10593000D90703D45B0800F1010003D0136070475E
:10594000002070472020704710B50C460121FFF75A
:1059500001FF024628B94FF4A071044B044800F03F
:105960009BFC01234461036110BD00BF9C7F0008C4
:10597000AD7F00082DE9F04F14460A6923690D46F2
:105980009A42BEBF0B4625461C46D5F810A0D4F857
:105990001090AB6869680AEB0907BB4285B0B8BFD5
:1059A0000131FFF7D7FE30B9024640F25D11414B9D
:1059B000414800F071FC00F114063346002206EB6A
:1059C000870843451ED305F1140C04F114030CEBB6
:1059D0008A0C03EB89020292ACEB0502153A22F025
:1059E0000302043205F115018C4538BF04220192EF
:1059F000029A03939A4208D8002F55DC076105B03C
:105A0000BDE8F08F43F8042BDBE7B3F800A0BAF150
:105A1000000F20D0B146002205F1140E5EF8044BB1
:105A2000D9F800B0A1B21FFA8BFB0AFB01B11144F7
:105A3000D9F80020240C120C0AFB042404EB1144B6
:105A400089B241EA0441F4454FEA144249F8041B83
:105A5000E4D801997250039A0433B2F80290B9F174
:105A6000000F1FD0B6464FF0000A346805F114014C
:105A70000A88BEF802B0A4B209FB02B2924444EA1A
:105A80000A444EF8044B51F8044BBEF80020240C95
:105A900009FB04248C4504EB1A444FEA144AE7D866
:105AA000019AB4500436A3E758F8043D002BA5D161
:105AB000013FA1E79C7F0008AD7F00082DE9F84376
:105AC000154612F0030206460F4607D0254C013A50
:105AD000002354F82220FFF79FFE0746AD103DD06B
